{
  "_format": "hh-sol-artifact-1",
  "contractName": "Game",
  "sourceName": "contracts/Game.sol",
  "abi": [
    {
      "inputs": [
        {
          "internalType": "address",
          "name": "_ethAddress",
          "type": "address"
        }
      ],
      "stateMutability": "nonpayable",
      "type": "constructor"
    },
    {
      "inputs": [],
      "name": "_depositETH",
      "outputs": [],
      "stateMutability": "payable",
      "type": "function"
    },
    {
      "inputs": [],
      "name": "getBalance",
      "outputs": [
        {
          "internalType": "uint256",
          "name": "",
          "type": "uint256"
        }
      ],
      "stateMutability": "view",
      "type": "function"
    },
    {
      "inputs": [],
      "name": "getValOfEth",
      "outputs": [
        {
          "internalType": "int256",
          "name": "",
          "type": "int256"
        }
      ],
      "stateMutability": "view",
      "type": "function"
    },
    {
      "inputs": [],
      "name": "plantASeed",
      "outputs": [
        {
          "internalType": "bool",
          "name": "",
          "type": "bool"
        }
      ],
      "stateMutability": "view",
      "type": "function"
    },
    {
      "inputs": [
        {
          "internalType": "uint256",
          "name": "amount",
          "type": "uint256"
        }
      ],
      "name": "withdraw",
      "outputs": [],
      "stateMutability": "nonpayable",
      "type": "function"
    }
  ],
  "bytecode": "0x608060405234801561001057600080fd5b5060405161052f38038061052f8339818101604052810190610032919061004d565b506100bf565b600081519050610047816100a8565b92915050565b60006020828403121561005f57600080fd5b600061006d84828501610038565b91505092915050565b600061008182610088565b9050919050565b600073ffffffffffffffffffffffffffffffffffffffff82169050919050565b6100b181610076565b81146100bc57600080fd5b50565b610461806100ce6000396000f3fe60806040526004361061004a5760003560e01c806312065fe01461004f5780632e1a7d4d1461007a5780634fcdb70a146100a3578063707432db146100ad578063a273a754146100d8575b600080fd5b34801561005b57600080fd5b50610064610103565b60405161007191906103bd565b60405180910390f35b34801561008657600080fd5b506100a1600480360381019061009c919061021c565b610108565b005b6100ab6101fb565b005b3480156100b957600080fd5b506100c26101fd565b6040516100cf9190610362565b60405180910390f35b3480156100e457600080fd5b506100ed610202565b6040516100fa9190610347565b60405180910390f35b600090565b6000811161014b576040517f08c379a00000000000000000000000000000000000000000000000000000000081526004016101429061037d565b60405180910390fd5b60003373ffffffffffffffffffffffffffffffffffffffff168260405161017190610332565b60006040518083038185875af1925050503d80600081146101ae576040519150601f19603f3d011682016040523d82523d6000602084013e6101b3565b606091505b50509050806101f7576040517f08c379a00000000000000000000000000000000000000000000000000000000081526004016101ee9061039d565b60405180910390fd5b5050565b565b600090565b600090565b60008135905061021681610414565b92915050565b60006020828403121561022e57600080fd5b600061023c84828501610207565b91505092915050565b61024e816103f4565b82525050565b61025d81610400565b82525050565b60006102706000836103d8565b9150600082019050919050565b600061028a602b836103e3565b91507f5769746864726177616c20616d6f756e74206d7573742062652067726561746560008301527f72207468616e207a65726f0000000000000000000000000000000000000000006020830152604082019050919050565b60006102f06011836103e3565b91507f5769746864726177616c206661696c65640000000000000000000000000000006000830152602082019050919050565b61032c8161040a565b82525050565b600061033d82610263565b9150819050919050565b600060208201905061035c6000830184610245565b92915050565b60006020820190506103776000830184610254565b92915050565b600060208201905081810360008301526103968161027d565b9050919050565b600060208201905081810360008301526103b6816102e3565b9050919050565b60006020820190506103d26000830184610323565b92915050565b600081905092915050565b600082825260208201905092915050565b60008115159050919050565b6000819050919050565b6000819050919050565b61041d8161040a565b811461042857600080fd5b5056fea26469706673582212201cb79e4517d3ab01e1b661a3b82a2ba886701c687e19ed1d749856be86b1f8c664736f6c63430008000033",
  "linkReferences": {},
  "deployedLinkReferences": {}
}